:020000040000FA
:2010000000000420B5790000DD790000DF790000E1790000E3790000E579000000000000BC
:20102000000000000000000000000000E7790000E979000000000000EB790000ED79000024
:20104000712E0000F9200000BD160000EF790000EF790000EF790000CD290000EF7900006F
:2010600039160000EF790000EF79000005260000EF790000C12B0000EF790000EF79000002
:20108000E92B0000EF790000EF790000EF790000EF790000EF790000EF790000EF79000064
:2010A000EF790000EF790000EF790000EF790000EF790000EF7900000000000000000000C0
:2010C000EF790000EF790000EF790000EF790000EF790000EF790000EF790000D56E0000F5
:2010E000EF790000EF790000EF7900000000000000000000EF79000000000000EF790000E8
:201100000000000000000000000000000000000000000000000000000000000000000000CF
:201120000000000000000000000000000000000000000000000000000000000000000000AF
:2011400000000000000000000000000000000000000000000000000000000000000000008F
:2011600000000000000000000000000000000000000000000000000000000000000000006F
:2011800000000000000000000000000000000000000000000000000000000000000000004F
:2011A00000000000000000000000000000000000000000000000000000000000000000002F
:2011C00000000000000000000000000000000000000000000000000000000000000000000F
:2011E0000000000000000000000000000000000000000000000000000000000000000000EF
:2012000001F0FF01102A2BDB10F0070F08D010F8013B013A8B422DD010F0070F42B3F6D194
:20122000F0B441EA012141EA014122F007047FF000070023F0E80256083C85EA010586EA41
:20124000010685FA47F5A3FA87F586FA47F6A5FA87F68EB9EED1F0BC01F0FF0102F007023C
:2012600032B110F8013B013A83EA010313B1F8D10020704701387047002D06BF354603389F
:20128000073815F0010F07D1013015F4807F02BF013015F4C03F0130F0BC0138704700BF63
:2012A00010B5054C237833B9044B13B10448AFF300800123237010BDA007002000000000C5
:2012C000FC51010008B5034B1BB103490348AFF3008008BD00000000A4070020FC51010052
:2012E000A3F5803A704700BF174B002B08BF134B9D46FFF7F5FF00218B460F461348144AA7
:20130000121A12F099FE0E4B002B00D098470D4B002B00D098470020002104000D000D48FC
:20132000002802D00C48AFF3008000F02BF82000290008F05DF800F011F800BF00000800D4
:2013400000000000000000000000042058030020E02E0020000000000000000008B5074BB1
:20136000044613B10021AFF30080054B1868836A03B19847204600F029F800BF0000000096
:20138000FC45010070B50D4D0D4C641BA4100026A64209D10B4D0C4C13F024F9641BA41015
:2013A0000026A64205D170BD55F8043B98470136EEE755F8043B98470136F2E750030020B7
:2013C000500300205003002054030020FEE700BF08B509F01DF9BDE8084009F09BB900BF47
:2013E00000B585B009F07CF8002008F001FF00F035F909F011FA00F02FFF09F00DFA00F04E
:20140000AFFF4FF08053F420CE2136228DF808008DF809108DF80A20D3F8A8208DF80B2094
:201420000422D3F8A43001930DEB020103A812F01BFE08220DEB0201024812F015FE05B059
:201440005DF804FB3C1300200148002108F0C6BBB801002010B500F08BF90446BFF35F8FEA
:2014600008F074FC00B930BFBFF35F8F2046BDE8104000F081B900BF802803D1024B00228D
:20148000C3F804250120704700C000400120704730B5144D01232B6083B000F0C5F86FF084
:2014A00003031C1A03E000F0BFF8C44203D5D5F80031002BF7D00B4B0022C3F80021D3F879
:2014C0000825D3F80835920548BF6FEA8353054A48BF6FEA9353012101935160019803B0C2
:2014E00030BD00BF00C00040F8B588B10F46461E002500E0013516F8014F20464CB1AF42B4
:2015000007D000F0F7FE0A2CF4D100F0C3FEF1E7054600F0BFFE2846F8BD00BF042800D0B5
:20152000704708B5054A13680133136008F01AFA00B908BDBDE8084008F0F4B9C0070020C3
:2015400000B5134B83B000221A6001F099FDC0B9002001F0B1FD0F4B0F4A93E80300009029
:20156000ADF804100D48694600F0E2FF60B901210A4801F031F8094801F022F803B05DF8D2
:2015800004FB00F00DFFE3E700F00AFFEFE700BFC0070020344601001D1500003C460100E1
:2015A000014B1868704700BFC0070020014B1868C0097047C007002010B4164B1649002229
:2015C000C3F8402183B0D3F840210192019AD3F8102522F00F0242F00802C3F81025D3F848
:2015E000082542F00302C3F80825D3F804254FF480344FF4807022F00302C3F80425C3F8CB
:201600000443C1F88001086001221A6003B05DF8044B70470080004000E100E0014BC3F8AE
:201620004005704700800040024B01225A64D3F84405704700800040074BD3F8402102B9FC
:201640007047002282B0C3F84021D3F840310193019B02B008F0C6BB0080004010B4154BE8
:20166000154C4FF0A04100220320C3F80025C1F874074FF00050C1F80805C1F87C271F20A0
:201680001D21C3F8244583B0C3F86C25C3F81405C3F80C15C3F81C21D3F81C21019201988D
:2016A00004210122C3F800159A6003B05DF8044B704700BF0020004000E0D701074B0022BF
:2016C000C3F8082182B0D3F808210192019A044AD3F818051368C0B202B01847002000403E
:2016E000C40700204FF0A0434FF49A510022C3F80815C3F80C25704700B50F4A07CA85B0FE
:2017000001AB83E807000D49184601F083FA48B90B4801F0B9FA60B90A4B01221A7005B0C1
:201720005DF804FB00F03CFE054801F0ADFA0028F2D000F035FEEFE744460100E5160000DD
:20174000A42E0020A52E0020024B1B7803B9704701F08CBAA52E0020034B1B7803B97047D3
:20176000024B187801F0B6BAA52E0020A42E0020EFF3108072B6704780F31088704700BF74
:2017800000F01F0301219940C0F3471008F022BF08B500F0D7FF00B108BDBDE8084000F083
:2017A00089BF00BF30B583B00223002501F01F018DF8063012F00C03ADF80450144641EA65
:2017C000401508D0042B26D0082B28D00C2B04BF03238DF8043014F0030306D0022B16D0C0
:2017E000012B04BF03238DF805300F4A01A9284600F0B2FF230604D4284601F0ADF803B050
:2018000030BD0121284601F037F803B030BD01238DF80530E9E701238DF80430DBE7022319
:201820008DF80430D7E700BF8117000001F01F0141EA40101F28CABF054B4FF0A04300F01C
:201840001F00D3F8101521FA00F000F00100704700030050024B0022C3F8FC2F0120704746
:2018600000100040A1B118280ED8DFE800F00F180D0D2D24635E4741130D0D0D807C7874EC
:201880000D706C683D3A3600012070470020704702207047384B1B780B6000207047374BE8
:2018A000374AD3F80835A2FB03239B080A33DBB200200B607047334BDB7800200860002BA9
:2018C000E4D001230B6070472E4B1B7800200860002BDBD004230B6070477D230B60002030
:2018E000704700200860704710230B6000207047254B93F900300B60002070471F4A012382
:2019000082B05361D2F81C31002BFBD00020C2F81C01D2F81C310193019BD2F8483503F05C
:201920007F035B420B6002B07047164B5B790B6000207047134B5B780B60002070470A239D
:201940000B600020704720230B600020704703230B600020704708230B6000207047D823F0
:201960000B60002070471A230B60002070470B230B600020704700BFA62E00200010004033
:20198000CDCCCCCCDC000020A72E00200120704730B583B0FFF7ECFEBFF35F8F1D4B1B78BA
:2019A000ABB11D4B1D4902224FF0FF34C1F80843C3F88021C3F88020BFF34F8FBFF36F8F6C
:2019C000BFF35F8F03B0BDE83040FFF7D5BE03F0FF02124B1049C3F83021D3F8304101948F
:2019E000019CC3F83421D3F8342100924FF0FF34009DC3F8084302224FF44054C1F880211E
:201A0000C3F804430A60BFF35F8F03B0BDE83040FFF7B2BEDC00002000E100E0001000407F
:201A2000144BD3F8FC0F28B1D3F85025D2B2032A01D000207047104A127802F0FF0072B107
:201A40000E4A1278053A7A2AF3D8D3F83021002AEFD1D3F83401B0FA80F040097047074A85
:201A60001378053B7A2BE5D892F8800080F00100704700BF00100040DC000020C80700200D
:201A8000074A1378053B7A2B08D8064BD3F8303113B992F8800070470120704700207047EC
:201AA000C8070020001000400C2801D001207047042A05D121B1034B1B680B600020704721
:201AC000022070474C08002070B51B4CD4F85055EDB2032D82B02AD0184B194A1949C4F8DD
:201AE0000415C3F8102502F5DE421432C3F8142501264FF00062C3F80465C3F80425FFF7C6
:201B000047FFD4F8003243F01003C4F80032D4F80032022D43F40023C4F8003209D00023DC
:201B2000C4F85831D4F858310193019B666002B070BDA66002B070BD0010004000F00140D0
:201B400038110040C807002070B5314B314D0024C3F8384184B0D3F838210092009AC3F857
:201B60000C41D3F80C210192019AC3F83441D3F834210292029AC3F83041D3F83031297879
:201B80000393039B4B1F7A2B38D88C1E2246691C12F06AFA2B195B783F2B2DD89B00DBB247
:201BA0001D4E1B4A3370D2F848151C4B01F07F01494249B21970042089B209F017FB317891
:201BC000032009F013FB164B2A7816491A74D1F84C055860D1F8481599605200DA605868AE
:201BE00002381860812200210A4812F025FAFFF76BFF204604B070BDFF23D1E78122214671
:201C0000284612F019FAFFF75FFF204604B070BD00100040C8070020A62E0020A72E00207E
:201C20004C080020008000407D2910B50C4609D801460A48A31C00F8013B224612F014FACE
:201C4000002010BD064A0749074809F037FF7D222146064809F032FF012010BD6008002085
:201C60005046010060460100644601007446010030B5264C264A0F23C4F8103593780A3B76
:201C800003EB8303C4F808351179D079937952791B0643EA00230B4385B043EA02430021A6
:201CA0001C48C4F86C3640F20225C4F834550D22C4F83805C4F83C15684612F0BDF99DF894
:201CC00007309DF801009DF802109DF804205B0743EA002343EA014343EA825343F0C0635C
:201CE00043F00803C4F814359DF80A309DF809201B0443EA022343F07F0340F20122C4F8DD
:201D00001835C4F8502605B030BD00BF00100040DC0000202110010008B5084BD3F8FC2F5F
:201D20001AB1FFF7D1FE012008BD0122C3F8FC2FFFF79EFFFFF7C8FE012008BD001000409F
:201D400010B51C491C4C1D484FF0804200230B6023704B6003708B6082B0CB600B74C2F8CB
:201D60000031D2F800310093012300991360D2F80031002BFBD00024C2F80041D2F8003169
:201D8000019321460E48019B07F028FF214681220C4812F051F90C4B0122C3F8FC2FFFF738
:201DA00067FF0A4A1378DBB21370FFF7F1FD204602B010BD4C080020A72E0020A62E0020A8
:201DC000CC000020C807002000100040DC00002000B51B4BD3F8FC2F85B052B3FFF774FE29
:201DE000174B0022C3F84821D3F8481103910399C3F84421D3F8441102910299C3F84C2151
:201E0000D3F84C21019201220199DA6202E0D3F844211AB9D3F84821002AF8D0084BD3F8D5
:201E20004801D3F84431B0FA80F0400905B05DF804FB0122C3F8FC2FFFF71AFFCEE700BF21
:201E40000010004010B50388044663B140F2C93293420DD1822901D0012010BD134A137852
:201E6000053B7A2B08D940F2C9332380012010BD00230380032010BD0D4BD3F830311BB9EF
:201E800092F88030002BEED0FFF766FC09F090F809F05CF98021FFF757FE0028E3DD80B2F2
:201EA00009F04EF9034BDB689847DCE7C807002000100040744D010010B57D2884B05AD8DE
:201EC000334BD3F8FC2F002A49D0324CFFF7FCFDE378002B3DD163782D4ADBB20121C2F88F
:201EE0000C35D160D2F85035DBB2022BFAD100232949C2F80415C2F80C31D2F80C110191C4
:201F00000199C2F86C31D2F86C1102910299C2F85431D2F854310393039BD2F8003201217B
:201F200043F48023C2F800321160FFF77DFB6FF002031C1AFFF778FBE042FBD4144AD2F8E0
:201F40005035DBB20B2BFAD0FFF7BEFD002004B010BDFFF73DFF0028BDD10220F7E7012212
:201F60000C4CC3F8FC2FFFF783FEFFF7ADFDE378002BB0D0EDE7094A09490446094809F0F9
:201F80009DFD2146084809F099FD012004B010BD00100040DC000020600800205046010054
:201FA0006046010064460100904601007D2910B50C460CD801460D48A31C224600F8013B60
:201FC00012F052F82046BDE81040FFF775BF084A0849094809F072FD214608487D2209F085
:201FE0006DFD2046BDE81040FFF766BF6008002050460100604601006446010074460100D5
:2020000010B507280FD8DFE800F010190E0E48353C04374B3748C9B25971D0F8FC2F002AC9
:2020200048D1002010BD012010BD012950D000293ED1304BC3F8FC1F084610BDA1F10B031E
:202040000F2B35D82A4A2B4BC8B29070D3F8FC2F002AE6D00A39002201EB8101C3F8FC2F46
:20206000C3F80815D3F8FC2F002A3BD0FFF72CFD002010BD31F001001AD11D4BC9B2D97018
:2020800010BD1B4A1B4BC9B25170D3F8FC2F002AC7D0C3F80C15002010BD31F0070407D1E8
:2020A000134BC1F380011970FFF772FC204610BD022010BD1C7993F807C09A795979130699
:2020C00043EA0C23234343EA0143C0F86C36A8E7084BD3F8FC2F002AC8D1C3F8FC1FFFF70C
:2020E000C7FDC3E70122C3F8FC2FFFF7C1FDBDE7DC00002000100040184B1B7803B1704764
:2021000000B503F0FF02164BD3F8301183B029B9D3F8342192B903B05DF804FBC3F8302116
:20212000D3F8302100920F4B00990F48012283F8802003B05DF804EB07F044BEC3F8341179
:20214000D3F83431019381220648019B11F074FF03B05DF804EBFFF7B7BC00BFDC0000209F
:2021600000100040C8070020CC0000202DE9F047032908D8DFE801F009342A021B491C4AF0
:2021800000230B701370BDE8F0871A4F1A4EDFF86CA08846814606E040223146504602F072
:2021A00089FE0028EFD1484602F080FE3B680546002BF1D00028EFD0444600E03B68305D57
:2021C0000134E4B29847A542F8D8E5E740220A490A4802F06FFE064B01221A70BDE8F08752
:2021E000024B00221A70BDE8F08700BFAA2E0020A92E0020E00800206C090020FC4601003C
:20220000083808B5062808D8DFE800F0041511070707080004F0F2FAB0B108BD0C490D4A03
:2022200000230B701370BDE8084001F023B9BDE8084001F021B90649064A00230B7013704B
:20224000BDE8084001F02CB9BDE8084001F010B9AA2E0020A92E002008B503F03FFA0948EB
:2022600001F062F800B108BD074801F027F90028F9D101F0E5F80028F5D1044A044B107072
:20228000187008BD20470100FC460100A92E0020A82E0020124B1B780BB32DE9F041114D06
:2022A0002B78D3B9104E3378BBB10123DFF840800E4F2B7032784146384602F0D1FD04460E
:2022C000FFF74AFA002CF5D12B7823B1FFF744FA2B78002BFAD100233370BDE8F0817047FB
:2022E000A92E0020AA2E0020A82E0020FC460100AC090020114B1B78ABB1114B1A783F2A3F
:202300000DD810B419781A780E4C0132D2B21A701B786054402B0DD05DF8044B70471B78D9
:20232000402B05D0704703F0FF02054B1A707047FFF7B0BF5DF8044BFFF7ACBFA92E0020C0
:20234000A82E0020AC09002041B94FF0A04303214FF40022C3F84C17C3F80C25704700BF8D
:2023600010B40B4B0B480C4918604FF08052091A146952695C610020C3E9011004FB02F22A
:20238000D8601A6105485DF8044B01F097B800BFFC09002000100000085201002C47010096
:2023A00000B585B00346002101AA44F20100CDE90111039300F004F805B05DF804FB00BFD5
:2023C00072B6094BD3F8F030DB0700D500BEBFF34F8F0549054BCA6802F4E0621343CB6008
:2023E000BFF34F8F00BFFDE700ED00E00400FA0572B6024A1368013313607047140A00204F
:20240000034A1368013B136003B962B6704700BF140A0020044A137923B901211060918064
:202420001846704785207047180A0020084B1A68D20707D5074A4FF080410123C1F81835E4
:2024400013707047C02283F8002301221A60F1E700E100E0AB2E00204FF080430022C3F8B4
:20246000042182B0D3F804210192019802210122C3F804139A6002B0704700BF4FF08043AD
:202480000022C3F8002182B0D3F80021019201990122C3F804231A6002B070474FF080420A
:2024A00001235360D2F80C3403F00113B3F1011FF8D0024B00225A71704700BF180A0020B6
:2024C00010B54FF0804382B0D3F8002162B10021164AC3F80011D3F800115079009101215F
:2024E000009CC3F80813A8B14FF08043D3F80421CAB10022C3F80421D3F8042101920221FC
:202500000A4A0198C3F808131368012002B0BDE8104018471368517198474FF08043D3F86D
:202520000421002AE5D102B010BD00BF180A002030B41F4C437944F823201E4C03EB4303EE
:20254000E35C93BB90F904308A78002B26DB03F16043520103F56143D2B283F8002390F9D2
:202560000430002B09DB144D4FEA531C012203F01F0302FA03F345F82C3003680A88C3F894
:20258000082543790879C97803EB4303E21850700120E0549170002030BC7047074D03F042
:2025A0000F035201D2B2EA54D9E7082030BC7047240A0020200A002000E100E014ED00E02F
:2025C0000368044A01211960437903EB43030221D1547047200A002010B403680024C3F860
:2025E000004183B0D3F80041036801940122019CC3F8442311B10368C3F8042303B05DF862
:20260000044B70472DE9F041274E284FDFF8A08084B000244FF48035D6F804332B4211D0E7
:2026200057F824300022E0B263B1C6F84853C6F8085347F8242057F824300393D8F8003001
:20264000039A98470134032C4FEA4505E4D1164BD3F80423D10702D5D3F80021C2B9124B9C
:20266000D3F80423920710D5D3F804216AB10022C3F80421D3F804210D4B0192019A1B68E4
:20268000052004B0BDE8F041184704B0BDE8F0810022C3F80021064AD3F80031029304205F
:2026A0001368029A9847DAE700B0004040B10040240A002030B51F4C94F86A3083B0ABBBE5
:2026C00004F12F03204604F15F01FF2203F8012F8B42FBD14FF0FF3222600123072B88BFA4
:2026E000E11803F1010340F8042F88BF81F858200C2BF3D1062200210F4811F09DFC0F4BB7
:20270000C02283F8062340221A600D4B0020C3F87C01D3F87C210192019D4FF0004201216B
:2027200084F86A10C3F8042303B030BD082003B030BD00BF280A00208C0A002000E100E0D1
:2027400000600040034B93F86A00003818BF0120704700BF280A0020F0B5444D2B1893F999
:202760003030002B01DB0820F0BD8E78C6F34006002E0CBF0823002305EB830CACF1040CA5
:202780000CBF4FF00C0E4FF0080E02E001339E453ED95CF8044F0134F8D145F823202A1849
:2027A0005CB282F8304016B9EA1882F858008A7856071ED4D70749D51F2887BF2C4A00F03E
:2027C0001F0606464FF0A04202EB8602D2F8006726F00206C2F80067264FC60800F0070E3A
:2027E00017F806C0012202FA0EF242EA0C02BA558A7812F002020DD1083C45FA84F5097839
:2028000095F8603043EA811385F860301046F0BD0420F0BD9B0003F1804303F5C04309782B
:20282000D3F8104524F44F3424F44074C3F8104502020904D3F8100501F4403102F47C52E6
:202840000A430243C3F810250020F0BD1F284E7887BF074F00F01F0202464FF0A04702F50A
:20286000E072B60047F82260B6E700BF280A0020000300508C0A002030B4344C04EB000C79
:2028800082B09CF93030072B24DD083B44FA83F393F860309B09032B47D0012B0CBF4FF4A9
:2028A00000324FF440321F288ABF294B4FF0A04300F01F0003EB8000D0F8003723F4403305
:2028C000C0F80037D0F800371A43C0F8002702B030BC7047DAB2072AF9D8980000F18040A2
:2028E00003F1400200F5C04052B29200D0F8105592B202F1804202F5C04245F00105C0F805
:2029000010550020106012680192019A0029DED09CF9302054F82220002AD8D00D49012285
:2029200002FA03F3C1F80433D1E71F288ABF084A4FF0A04200F01F03D2F8102598BF034649
:20294000DA4002F0010202321204ACE7280A00200003005000600040194B034493F93030AF
:20296000072B18DCDAB2072A14D810B49A0002F1804202F5C042134CD2F81005012120F00C
:20298000010001FA03F3C2F81005C4F808335DF8044B704770471F288ABF0B4B4FF0A04365
:2029A00000F01F0003EB8000D0F8003723F44033C0F80037D0F80037C0F80037704700BFBE
:2029C000280A002000600040000300502DE9F04F0022164689B0CDE90222724B724C734896
:2029E0000122354604E0043383424FEA420211D019680129F7D1D4F804131142F3D01D6012
:202A0000196800910433834246EA020600994FEA4202EDD1644BD3F87C21012A21D0F3B2C4
:202A2000D3B1634F01250024A30003F180432E4203F5C0434FEA45050BD0D3F8100557F8C4
:202A40002420D3F81015C0F30520C1F3014102B190470134082CE7D1002E16DB09B0BDE84C
:202A6000F08F0022C3F87C21D3F87C3101934FF0A042019BD2F810254E4B0292D3F8102568
:202A80000392F3B2002B40F089804FF0FF334A4D0DF1100ACDE9063300220492CAF80420EB
:202AA000A5F16408454C0027012614F9010B431C33D0C0F3C20E0EF120030DEB030C00F01E
:202AC00007031CF8081C06FA03F31942C2B200F03F0022D008EB000191F9301058F821900F
:202AE0009109B9F1000F4BD003294BD01F288BBFDFF8C0E04FF0A04E02F01F0202460EEB98
:202B000082021CF818ECD2F800C71EEA030FCCF3014C1AD1BCF1030F3BD0A542C5D1002F01
:202B20009CD04FF0A0430299D3F81035214A9942D2F8102502D1039991428FD0DDE90401AB
:202B40000293069003920791ACE7BCF1020FE4D1032904D0B9F1000FDFD0C847DDE74FF499
:202B6000403CD2F8003723F44033C2F80037D2F8003701374CEA0303FFB2C2F80037E9E776
:202B80000329CAD11AF80EB04BEA030B0AF80EB0ACE70329DED14FF4003CE2E746F0004669
:202BA0003FE700BF006100400060004020610040280A0020000300508C0A0020880A002021
:202BC000074B0022C3F8002182B0D3F800210192019A044AD3F808051368C0B202B0184735
:202BE00000D00040940A002010B5084CD4F8003182B04BB1064B1B6898470023C4F8003100
:202C0000D4F800310193019B02B010BD00000140980A002070B5114B114A1D781160DDB98D
:202C2000104E027801211970C6F80C25416804464FF47A720023C803490C0FF051FDC6F8B2
:202C40000405237A084A5B01DBB282F810334FF480331360284670BD082070BDAD2E002082
:202C6000980A00200000014000E100E0044B054901220220C3F804231A600870704700BF64
:202C800000000140AD2E002010B504460020FFF7AFFB0E4A1378072B11D80D492370581CCE
:202CA0001070D1F80805012202FA03F30343C1F8083500240020FFF7A3FB204610BD04243A
:202CC0000020FFF79DFB204610BD00BFAC2E002000000140034B044A00F5C07043F82020DD
:202CE000704700BF000001403546526E104A1378E3B903784FF08041C3F34003C1F880357F
:202D000003780C4803F00103C1F878350368DB0703D50123137000207047C02380F8003356
:202D200001230360012313700020704785207047AE2E002000E100E0014B02681A6070478E
:202D4000A40A00204FF080434FF46072C3F80423704700BF4FF080434FF46072C3F8082339
:202D6000704700BF014B00221A607047A40A002010B54FF0804386B0D3F80443620703D520
:202D8000D3F80821002A62D1A30605D54FF08043D3F81421002A4FD1600605D54FF08043D1
:202DA000D3F81821002A3BD1210604D54FF08043D3F81C214ABBE20504D54FF08043D3F83D
:202DC0002021B2B9A30512D54FF08043D3F824216AB10022C3F82421D3F82421214B059256
:202DE000059A1B68022006B0BDE81040184706B010BD0022C3F820211A4AD3F820310493CD
:202E000001201368049A9847DCE70020C3F81C01144AD3F81C3103931368039A9847CAE72A
:202E20000022C3F81821104AD3F81831029301201368029A9847B7E70020C3F814010A4A80
:202E4000D3F8143101931368019A9847A4E70022C3F80821054AD3F8083100931368009A4D
:202E6000984791E7A40A0020A00A00209C0A002008B5FFF77DFFBDE80840FFF721BB00BFF0
:202E800010B44FF080414FF080530020C1F80C015F4AC1F81001C1F83805D3F80404C2F880
:202EA0002005D3F80804C2F82405D3F80C04C2F82805D3F81004C2F82C05D3F81404C2F80A
:202EC0003005D3F81804C2F83405D3F81C04C2F84005D3F82004C2F84405D3F82404C2F85A
:202EE0004805D3F82804C2F84C05D3F82C04C2F85005D3F83004C2F85405D3F83404C2F8AA
:202F00006005D3F83804C2F86405D3F83C04C2F86805D3F84004C2F86C05D3F83001D3F8EF
:202F20004444C2F87045082824D04FF08043D3F80024D20744BF6FF00102C3F80024354AE9
:202F4000D2F8883043F47003C2F88830BFF34F8FBFF36F8F4FF01023D3F80022002A26DB09
:202F6000D3F80432002B22DB2B4B2C4A1A605DF8044B7047D3F83421002AD6D12848294A93
:202F8000294CC0F88C46FB20C2F81805D1F8E42ED3F85832254822F00F0203F00F03134325
:202FA0004FF40072C1F8E43EC0F84026BDE7204A0123C2F80435D2F80034002BFBD04FF00B
:202FC000102312211A4AC3F80012D2F80034002BFBD04FF010231221154AC3F80412D2F8C7
:202FE0000034002BFBD000231149C2F80435D1F80034002BFBD0BFF34F8F06490D4BCA68DB
:2030000002F4E0621343CB60BFF34F8F00BFFDE700C0004000ED00E0F40000200090D00380
:203020000050004000F00040488103000090024000E001400400FA0510B580B1012800D01F
:2030400010BD0E4C2369A070002BF9D01A6822615B68012098472369002BF7D1F0E7074C48
:20306000A36801226270002BEAD01A68A2605B6800209847A368002BF7D110BDA80A002088
:2030800010B50B4C237882B013B1852002B010BD08486360A3602361E360FFF7BBF9019047
:2030A000FFF7C4F901980123237002B010BD00BFA80A00203930000038B5154DAB780446D8
:2030C00073B110B14368012098470020FFF790F9EB680133EB600020BDE83840FFF790B973
:2030E00003F0FF00FFF784F964B12A6942B1944208D0134601E09C4204D01B68002BFAD1BD
:2031000022602C61EB68002BE2D1FFF7A5F9DFE7A80A002038B5154D6B78044673B110B1E2
:203120004368002098470020FFF762F96B6801336B600020BDE83840FFF762B903F0FF0062
:20314000FFF756F964B1AA6842B1944208D0134601E09C4204D01B68002BFAD12260AC606F
:203160006B68002BE2D1FFF789F9DFE7A80A002038B50B4C0020FFF73BF96368013B636036
:20318000656825B1BDE838400020FFF739B9FFF785F965700020BDE83840FFF731B900BF42
:2031A000A80A002010B5074C23784BB9064B002808BF1846FFF79AFD08B90123237010BD16
:2031C000852010BDAF2E00205047010000B583B00190FFF7BFFDFFF7C5FD0198FFF7ACFDCD
:2031E000FFF7B0FD002003B05DF804FB014B02481B681847BC0A0020704701000378052B44
:2032000002D0094B1B681847084BD3F88424D3F88034DBB2002BF4D1054BD2B2052A08BF1A
:203220001846014B1B681847BC0A0020007002406C470100012803D0022809D020B170472F
:20324000054B06481B681847034B05481B681847014B04481B681847BC0A00206447010065
:2032600068470100604701002DE9F04F89B0002504460E4601929846049500E001356268BB
:203280000123D2F804902146002204A8C8470028F4D18DF80E00069085B3814682460BE0A0
:2032A0009DF80E306768023BD7F804B0D8479DF80E309A44554521D960680123D0F804B0E0
:2032C0000DF10E02214606A8D84760680123D0F804B00DF10F02214606A8D8479DF80F302D
:2032E000B3424FF00002214606A8D9D1019B4B4508D009F101095FFA89F9D1E7052009B060
:20330000BDE8F08F129A9DF80E30136088F8003088F801606268023B556808F10202A84756
:20332000002009B0BDE8F08FF0B5054683B03B4803F0FEF8044610B1204603B0F0BD3849AF
:20334000384A394B08701060014648221860374810F072FE36484822214610F06DFE002D80
:2033600053D095E80700334B83E80700002846D00020FFF717FF08B1852843D12E4C237ABB
:20338000002B48D0013BDBB204F10C024FF0030E6568274E254F1EFB032E04F1090C9CF830
:2033A0000110D9B19CF802000CF10103013903440CEB000253FA81F112F8013B13F0800FCA
:2033C00003F00F000ABF03F00F0307EBC00306EBC30391421C6028685860EDD10CF1030C50
:2033E000F445DCD10B238DF804302B68124801A99847044600289FD003F0D8F89CE70F4A0A
:203400001A60B5E7FEF7CCFFB8E70A4B0B4A1D72C3E90025ACE76568E4E700BFFD31000015
:20342000B12E0020580B00205C0B0020C80A0020100B0020BC0A00209C470100AD370000A8
:2034400010B503F0D3F968B103F0D8F9044648B90648FFF7BBFE034628B1FEF7A1FF2346A3
:20346000184610BD0823184610BD00BF5C47010003F0A6B803F0D2BE4FF0804303E0D3F8E4
:203480003824D10707D5D3F838249207F7D5024B02481B6818477047BC0A002084470100AE
:2034A00000B5054B83B082221B688DF8042001A8984703B05DF804FBBC0A00202DE9F04346
:2034C000077A83B0002F59D007F1FF3E5FFA8EF300F1090C00F10C024FF0030E304D314E80
:2034E00061461EFB032E4C780022944201EB020319D091F8028013F9089013F80830B9F1A9
:20350000000F0BDB03F00F0305EBC3031B680132002BEAD0112003B0BDE8F08303F00F035F
:2035200006EBC303F2E703318E45DCD100241C4D1C4E224602EB420262445378D3B14FF083
:20354000000E7346917813440EF1010E5F56595C002F01F00F03B4BF06EBC30305EBC303BA
:20356000186041680968596051785FFA8EF39942E8D8077A0134E2B29742DBD80A4A13681D
:203580001BB11A681368002BFBD1106043680B228DF804201B6801A9984703B0BDE8F083A3
:2035A000100B0020C80A0020580B0020024B1878003818BF01207047B02E0020030710B5CA
:2035C000044604D52046BDE8104003F099BE03F0ABFA204603F0ECFE2046BDE8104003F0FA
:2035E0008FBE00BF03F05ABE014B1868704700BF580B002030B50F4B1D68A5B12C7AA4B1DA
:2036000000232A469C4603E05FFA83FC64450CD992F809E0864503F1010302F10302F3D1FA
:2036200009B181F800C0284630BD2B681D68002DE4D1F8E7580B0020436811461B681847FC
:2036400000F00F03082B0AD802064CBF054A064A02EBC303186810B143681B6818471020F0
:20366000704700BFC80A0020100B002038B5094B1C6864B1054602E023681C683CB16368D9
:2036800020461B68294698470628F5D038BD062038BD00BF580B002038B504460D4603F031
:2036A0001BF918B1054B1B78022B01D0082038BD29462046BDE8384003F01EB9B12E002074
:2036C00038B504460D4603F007F918B1054B1B78022B01D0082038BD29462046BDE83840B4
:2036E00003F09AB9B12E002070B543689B6882B006460D46144623B19847062801D002B023
:2037000070BD1CBB337AAB4225D9093605EB450535446E78BEB13246234600E06A789A4247
:2037200016D9AB782A19D05C030706D4019003F0FBF9019803F03CFE0198013403F0E0FD48
:20374000E3B29E42EAD8002002B070BD0720D6E700231B78FFDE6378FFDE00BF70B5436875
:20376000DB6805460C4603B198472B7AA3421AD9093504EB44042C4466789EB100253246AA
:203780002B4693420BD2A37862190135D05C03F085FDEBB29E4205D962789342F3D30023A6
:2037A0001B78FFDE70BD00235B78FFDE2DE9F04103780546852B00F2D280DFE813F0490283
:2037C000CB01D2006502A102F000F700D000110124013701D000D000D000D0004A01D000C0
:2037E000D000D000D000D000D000D000D000D000D000D000D000D000D000D000D000D000C9
:20380000D000D000D000D000D000D000D000D000D000D000D000D000D000D000D000D000A8
:20382000D000D000D000D000D000D000D000D000D000D000D000D000D000D000D000D00088
:20384000D000D000D000D000D000D000D000D000D000D000D000D000D000D000D000D00068
:20386000D000D000D000D000D000D000D000D000D000D000D000D000D000D000D000D00048
:20388000D000D000D000D000D000D000D000D000D000D000D000D000D000D000D000D00028
:2038A000D000D000D000D000D000D000D000D000D000D000D000D000D000D000D0005E0179
:2038C00086007D012B020E02F000734B734F5A687349186890473C68002C00F07482704DEF
:2038E000636820461B682946984723681C68002CF6D1DFF8BC81D8F804300BB10D209847E4
:203900003D6875B12E7A46B10024214628460134FFF724FFE1B28E42F8D82B681D68002D7E
:20392000F0D101F0B3FB5F4B1B68002B00F0638201205D4E02F02AFF3278931EDBB2062BFA
:2039400000F249825949CB5C13B1FFF711FC3278022A40F0408202F095FF01233370BDE860
:20396000F081514E3278931EDBB2062B40F2F481082A01D102F086FF4D4B5B6803223270DA
:203980000BB102209847454B1C6844B1636820461B682946984723681C68002CF6D13E4BD4
:2039A0002946D3E90002BDE8F041104790F902308278002BB4BF3F4B374B02F00F0203EB5D
:2039C000C203D3E90002294690470028C7D0A8780207C4D00307C2D4BDE8F04103F076B80B
:2039E000334B5B680BB1082098472C4B1C68002CB5D0636820461B682946984723681C6806
:203A0000002CF6D1ABE72A4B5B680BB109209847224B1C68002CA2D0636820461B68294673
:203A2000984723681C68002CF6D198E7204B5B680BB10A209847194B1C68002C8FD06368F5
:203A400020461B682946984723681C68002CF6D185E7174B5B680BB10F2098470F4B1C68F4
:203A6000002C3FF47CAF636820461B682946984723681C68002CF6D171E70B4C2378062B3D
:203A800000F0818103F0FD03052B7FF468AF02F003FF0223237062E7100B0020580B0020D4
:203AA000804701005C0B0020B12E002054470100BC0A0020C80A0020894F3D6875B12E7AF9
:203AC00046B10024214628460134FFF747FEE1B28E42F8D82B681D68002DF0D1814E03F08B
:203AE00051FB3278931EDBB2062B30D87E49CB5C13B1FFF73DFB3278022A28D102F0C2FEF8
:203B00003C68002333704CB1784D636820461B682946984723681C68002CF6D1744B7349FA
:203B2000D3E900029047734B5B680BB10E2098473378023BDBB2062B3FF611AF6A4AD35C28
:203B4000002B3FF40CAFBDE8F041FFF711BB082AD6D1D3E7624F3E688EB196F80880B8F1CC
:203B6000000F08D00024214630460134FFF7F6FDE1B28845F8D833681E68002EEDD1594E5B
:203B800001F07AFA3278931EDBB2062B00F2EE805549CB5C002B00F0E980022A03D0082ACD
:203BA00001D002F079FE534B5B68022232700BB1012098474E4B2946D3E9000290473C68A7
:203BC000002C3FF4CCAE636820461B682946984723681C68002CF6D1C1E6424E3378032BF8
:203BE00000F0DA8002F014FE00283FF4B8AE3278931EDBB2062B40F20A813F48FFF78AFADF
:203C00003278022A01D0082A01D102F03BFE06233370A4E6334E3378032B7FF4A0AE03F06A
:203C2000D3FA00283FF49BAE33789A1ED2B2062A00F2F6802C498A5C12B1FFF799FA337842
:203C4000022B40F0ED8002F01DFE0423337086E6244B1B78032B00F09B80082B00F09880E1
:203C6000244B5B680BB100209847244B1C68002C3FF475AE636820461B6829469847236855
:203C80005C68002CF6D16AE6164E3278082A72D0931EDBB2062B00F2A2801349CB5C002B6A
:203CA00000F09D80022A00F0A38005233370114B5B680BB1032098470D4B2946D3E900028B
:203CC0009047074B1C68002C3FF449AE636820461B682946984723681C68002CF6D13EE6B9
:203CE000580B0020B12E0020544701007C470100100B0020BC0A0020F80000205C0B002022
:203D0000494B5B680BB103209847484B4849D3E900029047474B1C684CB1454D63682046FF
:203D20001B682946984723681C68002CF6D1424E3378062B24D0082B0BD09A1ED2B2062AD6
:203D40005CD83E498A5C002A58D0022B01D002F0A3FD0223337002E63849CB5C13B1FFF7CE
:203D600007FA3278022A3FF405AE01E63448FFF7D1F9327811E70223337002F097FD96E7F6
:203D800007233370EBE502F087FD08232370E6E52C48FFF70BFD63E703F016FA00283FF46D
:203DA00021AF33789A1ED2B2062A36D823498A5C12B1FFF7DDF93378022B2ED102F062FD05
:203DC000042333700EE7DFF86080D8F80430002B7FF494ADA5E5082A7FF4BFADBBE51848EF
:203DE000FFF798F93378022B02D0082B7FF45DAF02F048FD59E798F808009AE51048FFF704
:203E000089F93378022BA4D0082BA2D09FE70B49CB5C002B7FF4F5AEEFE6082BD0D1CDE790
:203E2000082B7FF412AF0EE7BC0A0020100B002074470100580B0020B12E0020544701002B
:203E4000F80000207847010043681B6903B118471846704770B50A4B1D687DB12E7A4EB15F
:203E600000242146002228460134FFF73DFCE1B2B142F7D32B681D68002DEFD170BD00BF82
:203E8000580B002070B5094B1D6875B12E7A46B10024214628460134FFF760FCE1B2B142D6
:203EA000F8D32B681D68002DF0D170BD580B00204360CA699A4205D38A6902600B67CB6104
:203EC0000020704701F1280202608B6700207047F0B5046891F808E0002C00F04484A4F2C8
:203EE000123CBCF17C0F00F28280BCF17C0F7ED8DFE81CF0C900E402CF02180346011F03E3
:203F0000F20211037D007D007D007D007D007D00BC0316027D007D007D007D0078037C02E7
:203F20006B027D007D007D007E03000381007D007D007D007D00B803840281007D007D00E8
:203F40007D007D007D007D00CC037D007D007D007D006703930197027502C8027D007D00D8
:203F6000C102D602BA020602FF017D007D00F801260354019C037D007D00F9029003DD026B
:203F8000B203EB027D007D007D007D007D007D007D007D007D007D007D007D007D007D00A9
:203FA0007D007D007D007D007D0056039E027D007D007D000D017D007D007D007D00AA0371
:203FC0007D007D007D007D00A2037D007D007D007D007D007D007B034D017D007D007D0017
:203FE0007D00B8007D007D007D007D00B800002303601846F0BD002A00F0A2840479154637
:204000004FF0010C2C7000249C45047180F048830CF1010412B1057902F80C50BC4D91F8D8
:2040200014C02D682E78B44500F03F83B94E6D783570B94E4FF0000C86F800C0AC45C0F004
:204040002983B64D95F800C00CF1010C5FFA8CFC85F800C0F445C0F0358340F2993303603A
:204060000120F0BD012400250AB106795655AA4EA84D96F800C02D780CF1010C5FFA8CFC78
:2040800086F800C0DAE7002A00F06F8404791470012B4FF00B04047140F2AA842546012632
:2040A000022495559C420D7D057180F0D483661C15559E424FF00204047180F0BD83751C84
:2040C00094559D424FF00204047180F0A6836E1C54559E424FF00204047180F08883751CEC
:2040E0009455AB424E7E067140F26F836C1C5655A3424FF00005057140F25D83161901343B
:204100003570864D4FF0000C85F800C0A2E7804C0125266800241AB190F804C002F804C09D
:2041200034780E7DA64200F0F8828E7DA64200F0AB834024AB42047140F2BF826C1C002AFA
:2041400000F0D78206795655A3424FF00005057140F2BF821619013435706D4D0E7D2D68F7
:204160002D78AE4200F0BA828E7DAE427FF47FAF0025A342057140F287842546013473E72B
:20418000002A00F04484047901260025A0E7002A00F04A84057916460124DDE7002A00F028
:2041A00056840679944601240225A3428CF80060057140F2BA822E46651C1655AB424FF047
:2041C0000504047140F2CA82264602EB050C6C1C2425A3428CF80060057140F2BA822E4687
:2041E000651C1655AB424FF00604047140F2AC825619013534700E7D0671AB4240F29F823D
:204200006C1C5655A3428D7D057140F293821619013435703E4D2D6808E7002A00F0F98311
:20422000047901264FF0000C02F80C40B3424FF00004047140F20583751C9455AB424FF03C
:204240001004047140F2EE826E1C5455B3424FF00104047140F2D08235199455AB424FF06B
:204260000504047140F2B6826E1C5455B3424FF02404047140F2A482751C94559D424FF062
:204280000104047180F092822E1954559E424FF00304047180F08582751C94559D428E7DBA
:2042A000067180F079826C1C56559C424FF00405057180F06C821619013435709C424FF0C9
:2042C0002405057180F05E822E46651C16559D424FF00204047180F05082264602EB050C4A
:2042E0006C1C61E7002A00F0CB83057916460124E3E7002A00F0C683067901240025D3E7D7
:20430000002A00F0AF83047901250026C5E700BF600B0020B22E0020B42E0020B32E00208F
:20432000002A00F0968304791646012534700E7ABB4C2478B44280F0B98304EB440401F1B1
:204340000906B84F16F804C080F804C03444AB423C6040F27B826C1C002A00F081820679E5
:204360005655A3424FF00005057140F2608204F1010C1555AB4C256863456C78047140F2BC
:20438000478202EB0C060CF1010C34702C780D7DA54200F024828D7DA5427FF434AE0A2488
:2043A0006345047140F27A830CF10104002A00F07882057902F80C50A3424FF00005057128
:2043C00040F2118304F1010C1FE0964C2568002A00F02783047916464FF0010CD5E7002AD8
:2043E00000F03A830479012600252EE7002A00F03B8305794FF0010C0024BAE7002A00F0B1
:204400002F8305794FF0010C0024155563454FF00004047140F24F8202EB0C050CF1010C27
:20442000F0E5002A00F0228304790125002604E7002A00F023830579944601248CF8005023
:20444000784D2E68784D96F801C02D78AC4540F22A8396F802C03544A34215F80C500571EB
:2044600040F25681651C56E6002A00F0D48204790126002509E7002A00F0CF82047901263E
:204480000025F2E6002A00F0D982047901250026E3E6002A00F0E28205790126002407E6E4
:2044A000002A00F0E782047901250026E5E6002A00F0BF820479164601259BE6002A00F0F0
:2044C000D782057901240026EBE5002A00F0BA820579164601249CE6002A00F0CD8206792B
:2044E0000124002503E6002A00F0A1820679944601246DE6002A00F0A38205794FF0010C72
:204500000024155563454C7E047185D840F22E3303600120F0BD002A00F08D820579164602
:204520000124EDE5002A00F09082047901250026C6E5002A00F07382047901250026CFE558
:2045400001250024002A40F09D810224AB42047140F213816C1C0225A342057140F2E580AA
:20456000651C0524AB42047140F2F8806C1C2425A342057140F2ED80651C0624AB420471AD
:2045800040F2E28001350C7D0471AB4240F2D7806C1C8D7D0571A34240F2CC80013439E61E
:2045A00001260024002A00F02C8105791555B3424FF00505057140F2A68002EB060C741C66
:2045C0003CE74FF0010C0024002A00F079810579155563454FF02404047140F24E810CF1CA
:2045E000010621E601240025B6E601240025A6E501244FF0000C002A00F0E781057902F888
:204600000C50A3424FF00205057140F2A98104F1010C76E701250024002AAED00679E0E5AC
:20462000B32E0020600B0020B42E002001250024002A96D00679C0E501250026002A3FF445
:2046400078AD0479945574E501250024002A3FF470AD067916556CE501240025002A98D09B
:204660000679CEE501244FF0000C9FE601250024002A00F06981067916559D424FF00404B5
:20468000047180F00981561901354FE601244FF0000CBFE40725A34205712FD9661C81E745
:2046A0004FF44F7303600120F0BD0525A342057140F2518104F1010C86E740F28333036081
:2046C0000120F0BD0925A342057140F27981651CCEE74FF4617303600120F0BD0D6AA3427D
:2046E0002D7805713FF649AD40F2893303600120F0BDA3420271ECD901342EE540F26D331E
:2047000003600120F0BD40F26E3303600120F0BD40F2723303600120F0BD0324AB420471D3
:2047200040F26B812C46013590E740F2523303600120F0BD40F2593303600120F0BD4FF422
:20474000567303600120F0BD40F2573303600120F0BD40F2563303600120F0BD40F25533CC
:2047600003600120F0BD08240471002B7FF48BAC40F2123303600120F0BD40F251330360D1
:204780000120F0BD4FF4547303600120F0BD40F24F3303600120F0BD4FF45373036001209E
:2047A000F0BD40F24B3303600120F0BD40F24A3303600120F0BD40F2193303600120F0BDDC
:2047C00040F2493303600120F0BD4FF4467303600120F0BD4FF4527303600120F0BD02246E
:2047E0006345047140F20E810CF1010403E740F2173303600120F0BD40F245330360012014
:20480000F0BD0524B34204717FF67DAF741C17E64FF44A7303600120F0BD40F2163303601B
:204820000120F0BD4FF4517303600120F0BD40F2273303600120F0BD40F2153303600120B7
:20484000F0BD40F2433303600120F0BD40F2263303600120F0BD4FF4457303600120F0BDEA
:20486000A3420271E3D90134934D2D689C426E780671CDD204F1010C88E540F24233036027
:204880000120F0BD067921E50224AB42047140F200812E460135D1E640F22133036001201F
:2048A000F0BDA342027140F29E80013400259C420571C0F0948040F2353303600120F0BD66
:2048C000242463450471D8D90CF1010400259C420571B6D201341025A3420571A2D901344A
:2048E00001259C42057187D22C4405259C420571BFF470AF013424259C420571BFF460AF91
:2049000001340125A34205717FF650AF2C4403259C420571BFF445AF01348D7D05719C4247
:20492000BFF43AAF013404259C420571BFF42FAF01342425A34205717FF624AF651C04E60C
:204940004FF0010CFFF75FBB04249D420471A3D20E7A0135ECE440F2413303600120F0BDA5
:2049600040F22D3303600120F0BD0B24012B04713ED902240D7D05719C42BFF46CAF013486
:2049800002259C420571BFF457AF01340225A34205717FF642AF013402259C420571BFF463
:2049A00026AF01344D7E05719C42BFF40EAF013400259C420571BFF4FEAE0134FFF7A1BBCA
:2049C0004FF4487303600120F0BD0225A3420571C6D901344D7E05719C42BFF497AD04F147
:2049E000010CFFF710BB4FF44D7303600120F0BD40F2133303600120F0BD40F277330360CD
:204A00000120F0BD4FF44B7303600120F0BD0124C2E701245AE7012479E701246BE7012441
:204A2000C0E74FF0010CB1E40124FFF796BB01249DE50125A7E50124FFF763BB012454E790
:204A40000124C7E70124FFF7E5BB01249EE7012481E5764601256BE4012441E701248FE77A
:204A6000012423E7012458E70124FDE6012432E701247FE7012444E7012499E70124DFE4F5
:204A8000012456E701244EE740F28E3303600120F0BD4FF45F7303600120F0BD40F2333358
:204AA00003600120F0BD00231B78FFDE024A002313601B78FFDE00BF600B002078B910B5A0
:204AC00004460868037B202B01D0062010BD00F10E01072218300FF0C7FA204610BD032008
:204AE000704700BF4360CA699A4210D38A6910B40260C8690C6FC01A1A44C86123440038E6
:204B000018BF01205DF8044B8A610B67704701F12802026000208B67704700BF2DE9F04792
:204B20000B7888B00C4605460E2B14D8DFE803F008180808130D2813131813080808080055
:204B40000024204608B0BDE8F0874B78DA0930D15B09012B4DD00624204608B0BDE8F0873F
:204B60000368002403F134022046C3E91E44C3E920441C845C62DC625A6708B0BDE8F087C7
:204B8000027A002A00F06581837A0930002B00F05E818B78E97A415C9942D1D01B061FD4D6
:204BA000E77807F0FD03012BCAD0002F66D00324C7E713F0600FC3F3411200F09580012AF4
:204BC000C9D18B78212BC6D1B1F80720072AC2D10168601C183108B0BDE8F04700F060BAF5
:204BE000E478002C00F0A080032C14BF03240024A7E78B780668202B00F09E80222BAAD1B0
:204C0000B1F80730002BA6D1B1F80330328C338403F0010702F00102BA4291D0C3691BB17C
:204C2000C7F10301C9B29847002F89D12B7A012B40F20B816B7B05F10C08002B00F00381B7
:204C4000AB7B18F8030002F001F92B7A012B40F2FC806B7B012B40F2F680AB7B98443C4672
:204C600098F8010002F0F2F806F13403C6E91E77C6E920777762F762736762E72E68012AF9
:204C800006F10C0100F0E1806A7B012A05F10C0340F2D980AA7B069113446F4A0592B46A9E
:204CA00093F80180002C63D1F36FC6F88030F36AC6E91E44002B00F0B58006F12C0393E859
:204CC000030006F1240383E803000023F36205A94046FEF7F5FC0446EB69002B3FF431AFD7
:204CE0000021284698472CE703F01F03012B7FF432AF8E78062E7FF42EAF05A8039200F0E2
:204D0000E5FC03AB00930746E278217928463B46FEF7AAFA05283FF41EAF601C039A3946E3
:204D200000F0BEF904460CE7EB69002B3FF408AF01212846984704E7B1F80720072A7FF458
:204D40000AAF3373B1F80730DBB2737300200E36CDE905630790FDF74BFB05A90020FEF78B
:204D60009BFC0446002866D00020FDF749FBE8E6D6F884A0706A544528BF544606F13409B4
:204D8000224649460FF070F9F26FF767AAEB040309EB04011444F26AC6F88040C6E91D134F
:204DA000002A42D006F12C0797E8030006F124044FF0000984E80300C6F82C90DBB938E00F
:204DC000706A0FF051F9B26AB36FC6F880209B1AB367736F13447367EB6913B1002128468B
:204DE0009847F36A13B397E8030084E80300B36FC6F82C90EBB1B26A716F9342E0D21A46A5
:204E0000706A0FF031F9B26FB36AF2679B1AB362736A1344736253B105A94046FEF750FCAC
:204E2000044659E70023736256E700237362002452E7736AEFE7094B03A9CDE9033500F0CD
:204E400031FC044690E73B78FFDE7B78FFDE1B78FFDE5378FFDE00BFE54A0000BD4A0000F7
:204E60000368B3F820C01CF0010F18D00B46017A012918D9417B00F10C0C91B110B5817B89
:204E800084B01CF8010091060CBF0124002401A9CDE901320394FEF7FFFB04B010BD08205C
:204EA00070470B78FFDE00235B78FFDE0368D3F880007047F0B50468238CDB0783B022D5CF
:204EC0000546002016460F46FDF792FAA26F42B9636AE3B111240020FDF792FA204603B0DB
:204EE000F0BD964228BF1646616F324638460FF0BBF8D4E91D32921B3344C4E91D32C4F88A
:204F000080600024E7E70824204603B0F0BDC4E909762A7A012A12D9697B012905F10C02D5
:204F20000FD9AB7B084D13440C3458786946CDE90054FEF7C5FB041E08BF9224CBE75B7815
:204F4000FFDE1B78FFDE00BFB13E0000002070472DE9F04F4B6885B0CDE900020C46002B0D
:204F600070D001F0AFFDE568019B9D4228BF1D468146002D7BD04FF0000A56464FF00108D6
:204F8000D346D4E90113AB421F4628BF2F46E1B13A4609EB06000FF067F8A268E368C4F8FE
:204FA00004B0D21BED1B3E44DF1BA260E76022B3002F08BF4FF00008002DE2D1009BC3E94A
:204FC0000096404605B0BDE8F08FABB1204609EB060250F8101B4B68D3F804A03B46D047F1
:204FE000A268E368D21BED1B3E44DF1BA260E7605AB14FF0010ADBE7E768BAF1000F04D1AD
:205000005FB9B846002DBCD1D8E723681B681B6823604FF0010A002FF3D02168F1B1CDF8C1
:2050200008B003E0A36821680133A3604B6800225F6802A80123B8470028F3D12061002D07
:205040009FD1BBE70B681B681B68002B89D18B68002B86D1C0E900339846B2E76160002E89
:20506000ACD0019BB34288BF4FF00008A6E72E464FF00108A2E700BF08B50020FEF79EFA9A
:20508000BDE808408020FEF799BA00BF08B50020FEF7A8FABDE808408020FEF7A3BA00BF6A
:2050A00070B5C38893421E4628BF1646934284B00D4612D8002400200394CDE90156FDF7E2
:2050C00097F901A98020FEF7E7FA044688B10020FDF796F9204604B070BD8020144601F0C8
:2050E000EBFBB4FBF0F202FB1044B4FA84F46409E1E701F0C3FD80280BD1094A094B92E837
:20510000030083E803000020FDF77AF9204604B070BD0020FDF774F91024204604B070BD54
:20512000E4470100880B00202DE9F04F0B780E2B89B00CD893B1013B0D2B0FD8DFE803F009
:205140007118130E33480E0E0E0E18621D23852B04D1A94B1A78032A00F02A8106252846CC
:2051600009B0BDE8F08FA54800F018FB002878D10025284609B0BDE8F08F4FF08043D3F8B4
:205180003834DB075DD49C4B1A78012AF0D09C499C480A78012422F002021C700A7000257B
:2051A000FEF704FBDBE705230DF115008DF8143001F0CAFC9DF81530934E002203F01F048B
:2051C0003260032C00F29B80DFE804F09BC47B72C87803280C46C1D08B4E3368002B00F01D
:2051E000F38000227168326098470546002865D13368002B00F0EA80A378002BB8D101F047
:20520000C9FCACE77C4A1378002BB1D07C497D480B78002523F0020315700B70FEF7C6FA3A
:205220009DE7754A1378032B98D0754975480B78032423F0020314700B700625FEF7B6FAFE
:205240008DE76D4A1378022B92D06D496D480B78022423F0020314700B700025FEF7A6FA24
:205260007DE76A4B0122DA65BFF36F8FBFF34F8F7EE79DF81610062900F03781082900F05B
:205280002381A9B9624C022220460EF0D5FE5C4B1B78990703D5237843F0020323705C4942
:2052A00002220DF11500FFF7FBFE0546062D03D105A8FEF7DBF90546002D41D001F0D4FCB6
:2052C0004DE79DF81900020707D005A9FEF7B8F906280546F0D19DF8153013F0600F0ED153
:2052E0009DF81630444A9DF819401278012B00F0A180032B00F08E80002B00F0AE800625F0
:20530000DCE713F0600FC3F34117D1D1DB09B0D19DF81630032B00F0B180092B00F0BD80B8
:20532000012BC5D1BDF81730012BC1D1FEF73EF9002800F0F080324A137823F0020313709B
:205340003368002B4BD001F099FC054600287FF40FAF54E79DF8190003A9FEF74BF904462A
:20536000002840D09DF80C1005AAFEF765F906280546A1D19DF8152012F0600F9ED11E4B44
:205380009DF80C101B78D20940F0DA809DF816200B2A93D1052B2DD1BDF81730FF2B00F2BA
:2053A000BC809DF817202046FEF79EF9054683E7134914480A78042422F002021C700A70C0
:2053C0000625FEF7F3F9CAE60E2577E74FF08053D3F83021082A08D001F03CFCBFE601F089
:2053E00039FC0025BBE6102568E7D3F83431002BF2D1BDE6082561E7B52E0020900B00203A
:20540000B62E0020AC470100880B002000700240940B002025073FF572AFBDF81730002BC8
:205420007FF46DAF052A01D02007E3D1204601F04DFB85E721073FF562AFBDF81730002B63
:205440007FF45DAF052A01D02207D3D1204601F06BFB204601F0ACFF72E7052A01D02707BA
:20546000C8D1204601F03EFB8549034602220DF115000B80FFF714FE05461DE7BDF81730D7
:20548000012B7FF415AFFEF791F8002843D07D4A137843F00203137052E77B4C2378043B09
:2054A000012BA7D89DF81730002B38D0012B34D1FEF7D0FC2378052B3FF442AF052373486E
:2054C0002370FEF773F93BE76F4A1278052A4FD0042A7FF4EDAE6A4B1F70694901220DF1D2
:2054E0001500FFF7DDFD0546E0E69DF81830022B57D0032B3FD0012B7FF4DAAEBDF81B3021
:20550000002B3FF46CAF624912220DF11500FFF7C7FD0546CAE60F25D0E60725CEE6FEF7AC
:20552000B1FC2378042B3FF40BAF564A57481378042123F0020321701370FEF737F9FFE6E2
:205540009DF81670002F7CD00A2F7FF4B7AE052B7FF450AF20460192FEF776FC4849019A76
:2055600003460B700DF11500FFF79AFD0546A3E6434A1370B1E7BDF81B30002B3FF42FAF0F
:20558000BDF819109DF8170000F0F6F8014600283FF48EAE02780DF11500FFF781FD054679
:2055A00084E6BDF81B30002B3FF419AF092B28BF09239946FEF718F84FF0090A0546B8B12A
:2055C00003974FF0000801E008F101086A680123D2F804B02946002203A8D8470028F3D14C
:2055E0002A682B7A15681C44C244E4B2002DE7D1234D28494A4628460EF036FD2C71A5F8CC
:2056000002A0FDF7D3FF18B1EB7943F02003EB71FDF7EAFF204B1860BDF81B20DA60002039
:20562000C3E90159FCF7E4FE1C498020FEF748F8054690B10020FCF7E3FE062D7FF43EAE43
:2056400036E6052B7FF4D6AE0D4902220DF115000F80FFF725FD05462EE601F00FFB8028D1
:2056600008D10F4B93E8030086E803002846FCF7C7FE65E62846FCF7C3FE10251EE600BF7D
:20568000940B0020B62E0020B52E0020AC470100D0470100B0470100700B0020EC47010071
:2056A000E447010038B505460C4601F0E7FAA84207D194E80300044A82E8030000231846E5
:2056C00038BD1023184638BD880B002008B1402303600148704700BF940B002070B54FF03B
:2056E000805286B0D2F8A830D2F8A41000916FEA83436FEA93430B4A0B4E9BB20D2102A8D0
:2057000006F002FA02AD002404E015F8013B06F8013B013402A80EF01EFD8442F5D306B021
:2057200070BD00BFF4470100D40B002010B5114B53F8204023780BB9A01C10BD0020FFF778
:20574000C5FF217899B12246C4F1010C02EB0C03DCB2234620F8141012F8011F0029F5D130
:2057600001335B00DBB243F44073038010BD40F20233FAE75C48010040B1052808D8054A99
:20578000105C28B1044B53F820300BB1FFF7CEBF00207047744801005C48010003460022F7
:2057A00053E8000F00EA020143E8001C9CF0000FF6D1704730B44C689C4208D20025456038
:2057C0000968016093420CD0002030BC704743600D6805600868E41A184493424C60086053
:2057E000F2D1201E18BF012030BC70474B689A4228BF1A460B68C0E90032D1E90030801A65
:205800001A44C1E90020003818BF0120704700BF4B689A4228BF1A4662B10B68C0E9003283
:20582000D1E90030801A1344C1E90030101E18BF012070471346F1E700B50A480A4A0B49F6
:20584000126883B000234FF0010C0370ADF805308DF807308DF804C001A80B70904703B02C
:205860005DF804FBB72E0020E40D0020BA2E0020704700BF00B583B00D4B0E4900228DF802
:205880000420D3F82025ADF80620D3F8C0040A4A0968136800280CBF4FF480704FF00120B4
:2058A000034301A81360884703B05DF804FB00BF00700240E40D0020C00C002010B5264B0C
:2058C000D3F80044C3F8004482B0BFF36F8FBFF34F8FBFF36F8FBFF34F8FE1050ED51F48D8
:2058E0001F4A002302218DF80730ADF805308DF804100368012101A811709847A2050DD5AB
:20590000164A17491268002303208DF80400ADF805308DF8073001A80B709047630519D597
:205920000F4B1A78B2B10C49012000221A70C1F808058865BFF36F8FBFF34F8F074BADF80C
:20594000052004211B688DF804100DEB01008DF80720984702B010BD00700240E40D00201B
:20596000B72E0020F8B54B680B4F934228BF13461D460C4606461A46096838460EF074FB96
:20598000C6E90075D4E90020401B2A44C4E90020003818BF0120F8BDEC0D0020F8B54B6812
:2059A000934228BF13460D461C4606465BB933607460D5E90032121B2344C5E90032201EB4
:2059C00018BF0120F8BD044F09681A4638460EF04BFB3760ECE700BFEC0D002030B53A4A89
:2059E0004FF0010C13680CFA01F423431360030683B0054610D4354B1B681C420AD1344BE6
:205A00008DF8060006221B688DF804208DF807C001A8984703B030BD2E4B00F00F0133F88F
:205A2000113003F1804303F51C331A68E2B100221A60BFF36F8FBFF34F8F4FF0805380287C
:205A4000D3F8303121D0082B04BF234BC3F81C2C224B00221A70224B03EB01120801927B25
:205A6000032A29D01B583BB3184B19682140D1D1174B8DF8065006221B688DF804208DF8A2
:205A8000071001A8984703B030BD082B04BF124BC3F81C2C114A134B0021117093F89E20CD
:205AA000032A03D0D3F89030002BDDD16FF00101064801F0B1FCD7E7012303FA01F1C94358
:205AC000024801F0A9FCCFE7C00C0020500C0020E40D00208848010000700240B82E00202E
:205AE000540D0020C40C0020064B93F900201878002AB4BF0021102100F00F031944FFF764
:205B00006DBF00BFBA2E00204FF08053D3F83031082B03D1114B0022C3F81C2C104B114917
:205B200093F88E200020032A087002D0D3F8803003B1704700B56FF0807183B00A4801F034
:205B40006BFC0A4B062108221B688DF80410ADF8062001A8984703B05DF804FB0070024010
:205B6000C40C0020B82E0020500C0020E40D00204FF08053D3F83031082B03D1144B0022DC
:205B8000C3F81C2C134B144993F81E210020032A087003D0D3F810312BB170470F486FF48C
:205BA000807101F039BC00B56FF4807183B00B4801F032FC0A4B062188221B688DF804101E
:205BC000ADF8062001A8984703B05DF804FB00BF00700240C40C0020B82E0020500C002088
:205BE000E40D00202DE9F04FDFF8E882DFF8E892D8F80040D9F80030234089B000F0C980C7
:205C000013F0012400F0C88094FAA4F4002C00F0C880B4FA84FA55460F2D1BD8DFF8BC927F
:205C20004FEA0A1B09EB0A1659F80B30B289716806A898476AF07F077FB2CDF804A008B98A
:205C400049F80B00012303FA0AFA6FEA0A0A05F0080B2CE0AAF1100B012303FA0AFA4FFA2E
:205C60008BF30193954B5FFA8BF51BF0080B6FEA0A0A2C4603EB051640F09B800395904A96
:205C800005F594734FF0000B52F82330B28971683768029306A8B847069A22B1079A029B76
:205CA0009A42C0F0E880019F019400B930604FF08053D3F83031082B03D1814B8222C3F802
:205CC0001C2CD8F80030079A03EA0A03C8F80030B3681344B3607B4B0121002F197006992D
:205CE00075DBBBF1000F00F08D80754BC3F8A017C3F8A4274FF08053AD00D3F83021082AD7
:205D000040F09380D3F83431002B40F08E80002F6D4B6E4AB4BF042628263544EEB2B8BF8D
:205D20009846019B664D06F18046A8BF904606F51C3608EB430800270124C5F80471BFF381
:205D40006F8FBFF34F8F3460BFF36F8FBFF34F8F022001F04BFBD5F80431002BEDD01E2060
:205D600001F044FBD5F874349A0606D4022001F03DFBD5F874349B06F8D5012001F036FB93
:205D8000B8F8003003F1804303F51C331B68002BD3D009B0BDE8F08F93FAA3F4002C7FF434
:205DA00038AF1023454E0393254601934FF0FF3A65E7434BD3F8C034D9037DD5B28971684E
:205DC0003468019F019506A80023A0476DE7BBF1000F6AD105EB85039B0003F1804303F52D
:205DE0001C33AD00C3F80016C3F804264FF08053D3F83021082A03D1D3F83431002B86D00C
:205E0000042313E005EB85039B0003F1804303F51C33AD00C3F80017C3F804274FF08053E0
:205E2000D3F83021082A3FF46DAF28232B44DBB203F1804303F51C3301221A60BFF36F8F33
:205E4000BFF34F8F214A204B1D4913EA270338BF1346019A33F8122002F1804202F51C320D
:205E600003E0D1F80031002B93D11368002BF8D009B0BDE8F08F02245146B473484601F008
:205E8000CBFA039B8DF81630114B8DF8174006221B688DF8142005A89847D9F80030D8F8DB
:205EA000004023407FF4ACAE73E7054BAD00C3F8A016C3F8A42699E70395E7E6C40C002050
:205EC00000700240B82E002088480100A8480100E40D0020C00C0020500C0020540D00204E
:205EE00038B5224BD3F86C44C3F86C44BFF36F8FBFF34F8F4FF08053D3F83021082A28D0CA
:205F00009CB1012594FAA4F3B3FA83F21146D3B10F2AA2F1100005FA02F30DDDC0B224EAB2
:205F20000304FFF75BFD002CECD1114B1B787BB9BDE83840FFF756BE05FA02F241F0800035
:205F400024EA0204EDE720211020FFF747FDD9E738BDD3F83431002BD2D1064A136823F01D
:205F6000011103F001130C431360C9E700700240B82E0020E80D002010B54FF0805382B0C0
:205F8000D3F83031082B03D1164B0022C3F81C2C154B164C93F85E200021032A217006D0C8
:205FA0001B6D73B102B0BDE81040FFF71BBE10486FF4001101F030FA2378002BF2D002B09E
:205FC00010BD6FF400110A4801F026FA094B062105221B688DF80410ADF8062001A898470C
:205FE000EAE700BF00700240C40C0020B82E0020500C0020E40D00204FF08053D3F830319E
:20600000082B03D10A4B0022C3F81C2C094B0A4993F89E200020032A087003D0D3F89030EC
:2060200003B1704705486FF0010101F0F5B900BF00700240C40C0020B82E0020500C0020C5
:206040004FF08053D3F83031082B03D10A4B0022C3F81C2C094B0A4993F8AE200020032A34
:20606000087003D0D3F8A03003B1704705486FF0020101F0D1B900BF00700240C40C002044
:20608000B82E0020500C00204FF08053D3F83031082B03D10A4B0022C3F81C2C094B0A4918
:2060A00093F8BE200020032A087003D0D3F8B03003B1704705486FF0040101F0ADB900BF02
:2060C00000700240C40C0020B82E0020500C00204FF08053D3F83031082B03D10A4B0022E0
:2060E000C3F81C2C094B0A4993F80E210020032A087003D0D3F8003103B1704705486FF091
:20610000800101F089B900BF00700240C40C0020B82E0020500C00204FF08053D3F83031AA
:20612000082B03D10A4B0022C3F81C2C094B0A4993F8CE200020032A087003D0D3F8C0306B
:2061400003B1704705486FF0080101F065B900BF00700240C40C0020B82E0020500C00202D
:206160004FF08053D3F83031082B03D10A4B0022C3F81C2C094B0A4993F8DE200020032AE3
:20618000087003D0D3F8D03003B1704705486FF0100101F041B900BF00700240C40C002075
:2061A000B82E0020500C00204FF08053D3F83031082B03D10A4B0022C3F81C2C094B0A49F7
:2061C00093F8EE200020032A087003D0D3F8E03003B1704705486FF0200101F01DB900BFF5
:2061E00000700240C40C0020B82E0020500C00204FF08053D3F83031082B03D10A4B0022BF
:20620000C3F81C2C094B0A4993F8FE200020032A087003D0D3F8F03003B1704705486FF091
:20622000400101F0F9B800BF00700240C40C0020B82E0020500C002010B54FF0805382B08F
:20624000D3F83031082B03D1154B0022C3F81C2C144B154C9A7F0021032A217006D01B6974
:2062600073B102B0BDE81040FFF7BCBC0F486FF4003101F0D1F82378002BF2D002B010BD39
:206280006FF40031094801F0C7F8094B062101221B688DF80410ADF8062001A89847EAE78B
:2062A00000700240C40C0020B82E0020500C0020E40D002010B54FF0805382B0D3F8303174
:2062C000082B03D1154B0022C3F81C2C144B154C93F86E200021032A217006D01B6E73B1F7
:2062E00002B0BDE81040FFF77DBC0F486FF4800101F092F82378002BF2D002B010BD6FF4A8
:206300008001094801F088F8084A062312688DF80430ADF8063001A89047EBE700700240AD
:20632000C40C0020B82E0020500C0020E40D002010B54FF0805382B0D3F83031082B03D19E
:20634000164B0022C3F81C2C154B164C93F87E200021032A217006D01B6F73B102B0BDE812
:206360001040FFF73FBC10486FF4000101F054F82378002BF2D002B010BD6FF400010A4826
:2063800001F04AF8094B062107221B688DF80410ADF8062001A89847EAE700BF0070024075
:2063A000C40C0020B82E0020500C0020E40D002010B54FF0805382B0D3F83031082B03D11E
:2063C000164B0022C3F81C2C154B164C93F82E200021032A217006D01B6A73B102B0BDE8E7
:2063E0001040FFF7FFBB10486FF4802101F014F82378002BF2D002B010BD6FF480210A48E7
:2064000001F00AF8094B062102221B688DF80410ADF8062001A89847EAE700BF0070024039
:20642000C40C0020B82E0020500C0020E40D002010B54FF0805382B0D3F83031082B03D19D
:20644000164B0022C3F81C2C154B164C93F83E200021032A217006D01B6B73B102B0BDE855
:206460001040FFF7BFBB10486FF4002100F0D4FF2378002BF2D002B010BD6FF400210A48E0
:2064800000F0CAFF094B062103221B688DF80410ADF8062001A89847EAE700BF00700240F2
:2064A000C40C0020B82E0020500C0020E40D002010B54FF0805382B0D3F83031082B03D11D
:2064C000164B0022C3F81C2C154B164C93F84E200021032A217006D01B6C73B102B0BDE8C4
:2064E0001040FFF77FBB10486FF4801100F094FF2378002BF2D002B010BD6FF480110A4800
:2065000000F08AFF094B042206211B688DF80410ADF806200DEB02009847E9E7007002401F
:20652000C40C0020B82E0020500C0020E40D002030B41B4A147884BB1A4D1B4B286001214D
:20654000117040201A4607E010F0080F0CBF40204FF40070013110320929A2F89C0082F8C8
:206560009E40C2F89040C2F89840C8B2ECD101224020002107E010F0080F0CBF40204FF4DA
:20658000007001321033092A9881997319609960D0B2F0D1002030BC7047082030BC70477A
:2065A000B92E0020E40D0020C40C00200249034A00230B6013707047E40D0020B92E00205B
:2065C0006B4B4FF4006210B5C3F80024BFF36F8FBFF34F8F4FF08053D3F83021082A6AD0E2
:2065E0000D2A14D10020FBF703FF624BD3F8002C002A00F093800322C3F8142D0020FBF767
:20660000FFFE4FF08053D3F83031082B57D0584A0123C2F80035BFF36F8FBFF34F8FD2F826
:2066200000341B05FBD54FF40063C2F80034BFF36F8FBFF34F8F4FF08053D3F83031082BF1
:206640004CD04B4B4C494D488024C3F81C45002240F2FF14C3F830250C604FF08051026049
:20666000D1F83011464C4748082908BFC3F81C2C0023454A2370037002214FF08053117086
:20668000D3F83021082A11D00D2A13D10020FBF7AFFE384BD3F8002C002A49D00022C3F857
:2066A000142DBDE810400020FBF7AABED3F83431002BEBD110BDD3F83431002B92D1002068
:2066C000FBF796FE2B4BD3F8002C002A46D0C022C3F8142C0020FBF793FE98E70020FBF776
:2066E00087FE244BD3F8002C7AB30022C3F8142C0020FBF785FE4FF08053D3F83031082B5F
:206700009FD11B4B40F2E3714022C3F80018C3F80428BFF36F8FBFF34F8F92E749F2753266
:206720000321C3F8002CC3F8141DC3F8002C65E749F27531C3F8001CC3F8142DC3F8001CA4
:20674000BDE810400020FBF75BBE49F27531C3F8001CC3F8142CC3F8001CC9E749F27532FD
:20676000C021C3F8002CC3F8141CC3F8002CB1E70070024000E00640C00C0020500C0020A7
:20678000B82E0020BA2E0020B92E0020124B00221A7038B94FF08053D3F83021082A13D0A7
:2067A0000E4900E00E490F4B0F4AC3F80413C02082F82703802151600122C3F80425BFF337
:2067C0006F8FBFF34F8F7047D3F834210449034B002A18BF1946E6E7B72E00200714C001AB
:2067E0000714E0010070024000E100E0024B1878003818BF01207047B92E0020034B187881
:20680000012894BF00200120704700BFB92E002010B50020FBF7ECFD174B1B7803F0FF0493
:2068200063B1164AD2F82C356BB14FF080530021D3F83031C2F82C15082B0AD00020FBF724
:20684000DFFD204610BD1C460020FBF7D9FD204610BD0B4BD3F8002C4AB949F27532C02199
:20686000C3F8002CC3F8141CC3F8002CE6E7C022C3F8142CE2E700BFB72E00200070024076
:2068800000E00640024B034AC3F80823704700BF0070024004148001024B034AC3F8042315
:2068A000704700BF0070024004148001014B00221A707047B72E0020064B10F0800FA3F1EF
:2068C000900208BF134600F00F0003EB00139889704700BF540D0020064A010600F00F0395
:2068E0004CBFD2F81005D2F81405D84000F00100704700BF007002402DE9F84347B2002F21
:2069000000F00F0504464FF00000B4BF80464FF010080E46FBF76CFD55B9324B1B78A342A8
:2069200006D010240020FBF76BFD2046BDE8F8832D4BDFF8DCC01C68DCF80010E44308EBE0
:206940000502A4B201230C4393401C4025D1002F2ADB264A2648DFF8BCE02F0102EB051982
:2069600042F807E005EB450500EB850841EA030E96E807001F4DCCF800E00027802388E839
:206980000700C9E9018789F80E700020C5F80431FBF736FD2046BDE8F88311240020FBF7B3
:2069A0002FFD2046BDE8F8833268134F134802F0604205EB4508B2F1005F07EB880800EB8E
:2069C00005194FEA051706D0B268D20754BF0C4A0C4AC251CAE7B268D50754BF0A4A0B4A46
:2069E000C251C3E7BA2E0020C00C0020C40C0020E40B002000E100E0540C0020540D002025
:206A0000655900009D590000ED57000011580000500C0020B55700002DE9F04147B2002F1E
:206A200000F00F0504464FF00000B4BF80464FF010080E46FBF7DCFC55B91D4B1B78A3422D
:206A400006D010240020FBF7DBFC2046BDE8F081184B194A1C681168E443A844A4B2012377
:206A60000C4303FA08F31C401BD10B431349A1F1900C11EA270138BF6146280101EB0515BF
:206A8000AC6037680F5013600D4B716869608022AC730020C3F80421FBF7B2FC2046BDE813
:206AA000F08111240020FBF7ABFC2046BDE8F081BA2E0020C00C0020500C0020540D00200A
:206AC00000E100E000487047EC0D0020044B40F48070C3F81805BFF36F8FBFF34F8F70479B
:206AE00000700240010718D4020600F00F0309D40B4A9B001A445068A0F10100B0FA80F057
:206B000040097047074A03F5847352F82300A0F10100B0FA80F0400970470020704700BF86
:206B20004074024000700240064BC3F80C05BFF34F8F40F48070C3F80C05BFF36F8FBFF3AE
:206B40004F8F70470070024010B50822002104460DF072FA0E4BD3F880242270D3F884245E
:206B60006270D3F88824D3F88C1442EA01226280D3F89024D3F8941442EA0122A280D3F802
:206B80009824D3F89C3442EA0323E38010BD00BF007002404FF08053D3F83021082A07D074
:206BA0000E4B0122DA64BFF36F8FBFF34F8F7047D3F83431002BF3D1EFF3108172B6074B18
:206BC0000122DA64BFF36F8FBFF34F8FDA64BFF36F8FBFF34F8F81F3108870470070024021
:206BE0004FF08053D3F83031082B03D1144B0022C3F81C2C134B14499A7B0020032A087037
:206C000018D010B51C6882B024B102B0BDE81040FFF7C0BF6FF480310C4800F0FDFB0C4B79
:206C2000ADF8064006221B688DF8042001A8984702B010BD05486FF4803100F0EDBB00BF56
:206C400000700240C40C0020B82E0020500C0020E40D0020034B01221A65BFF36F8FBFF3AD
:206C60004F8F704700700240034B01225A65BFF36F8FBFF34F8F704700700240014B187818
:206C8000704700BFBA2E002038B54FF080530446D3F83021082A23D00020FBF7A9FB14F032
:206CA000800F224814BF0022102204F00F0101230A4403FA02F2036814F0080423EA0203C0
:206CC000036008D11A4B01F5947143F82140BFF36F8FBFF34F8FBDE838400020FBF790BBC2
:206CE000D3F83451002DD7D12846FBF781FB14F0800F0E4904F00F0414BF00221022A318C0
:206D000001229A400B6840F2C57023EA0202084B0A6000EB4404C3F80048C3F80458D3F8B6
:206D200004382846BDE83840FBF76ABBC00C00200070024070B5044682B00020FBF758FBD1
:206D4000220621D43B483C4904F00F0301224FEA031C00EB0315103302FA03F30A6833EAC6
:206D6000020652D140F80C60344822EA03020A60026822EA030303600323AB73002002B058
:206D8000BDE87040FBF73CBB230704F00F0013D4802C2B4A3DD000F2DA335B00C2F8003827
:206DA000D2F80438D2F80418DBB243F002030B43C2F80438D2F80438204D1F4E2A683168D3
:206DC0000123834061EA020C1CEA030FD6D08DF8064021EA03011B4C316013432B600623D9
:206DE00022688DF804300401174B00261E5103EB0013032101A88DF80710997390470020E7
:206E000002B0BDE87040FBF7FBBA2046FFF73CFFB2E740F2B473C2F80038D2F80438D2F879
:206E20000418DBB243F004030B43C2F80438D2F80438C1E7C40C0020500C0020C00C002025
:206E400000700240E40D0020540D0020FFF772BF70B51B4C1B4A23681B4D106895F90010CD
:206E60001A4ADB439BB203432878D2F880640029B4BF0021102100F00F0C012261448A4024
:206E80001A4282B019D106F080066FF001110D482E7000F0C1FA23680D490022ADF8052022
:206EA0008DF80720052243F0010309688DF8042001A82360884702B070BDFFF73BFFE2E7DB
:206EC000C00C0020500C0020BA2E002000700240E40D00202DE9F843DFF82082D8F804538E
:206EE000002D00F0F1800024DFF814922946A6460127804A91FAA1F3B3FA83F04FEA800C12
:206F0000624493B3166807FA00F321EA030136B1C2F800E0BFF36F8FBFF34F8F1C430029BB
:206F2000E7D14FF08053D3F83021082A29D0724F04F4000534F4000410D0DFF8C88101262F
:206F400094FAA4F3B3FA83F206FA02F19BB124EA010458F822309847002CF1D13B780BB9B2
:206F6000FEF740FE4DB9BDE8F883D8F880014A460028CDD1BDE79847E2E7BDE8F843FFF7EF
:206F800067BFD3F834315C4F002BD1D13B78002B40F08C80A00240F19080584B5748DFF80D
:206FA00068C140F2A972C3F80028D3F8041811F0FF011CBFD3F804381940504B40F2AA726C
:206FC000C3F80028D3F8042812F0FF021CBFD3F804381A4040F2AB73C0F80038D0F8043854
:206FE00013F0FF031CBFD0F804080340434840F2AC76C0F80068D0F8046831400CD0DCF846
:20700000006040F2A97E0E43CCF80060C0F800E8C0F80418D0F80418384940F2AD70C1F861
:207020000008D1F8040802400DD0DCF8000040EA0240CCF8000040F2AA70C1F80008C1F88A
:207040000428D1F804282D4A40F2AE71C2F80018D2F80428134010D0D90748BF44F4000429
:20706000DA06264A40F2AB71C2F80018C2F80438D2F8043848BF44F00104DCF8003033F03D
:2070800001121CBF05F080710C4313F0011F3FF44FAF6B0544BFCCF8002044F4806447E7D8
:2070A000D3F83441FCB9144F3B7833B104F4000534F400047FF441AF54E704F4000534F4F5
:2070C00000047FF43AAF4BE74FF08053D3F83021082AE5D0084B1B78002B7FF444AFBDE8ED
:2070E000F843FEF77FBD044B1B78002B3FF438AF39E700BF00710240B82E002000700240B3
:2071000080710240BC480100E80D002070B51B4E1B4B34681B68240C24041C4313D001254F
:2071200094FAA4F000B3B0FA80F20F2A10460EDDA2F1100305FA02F224EA02041A07D8B28C
:207140000DD5002CECD140F2FF13336070BD030705FA02F20CD440F0800024EA0204FFF7C9
:20716000E9FD002CDCD1EEE71020FFF7E3FDF8E724EA0204002CD3D1E5E700BFC00C00203B
:20718000500C002038B50E4C8025C4F8845163681B0600D438BDFFF7B9FF0A4B0022C3F861
:2071A0000425BFF36F8FBFF34F8FC4F88450BFF34F8FBFF36F8F4FF0FF32C3F8082338BD4B
:2071C00000E100E00070024010B50020FBF710F9104B1B782BB900240020FBF711F92046E4
:2071E00010BD03F0FF04FFF791FF0B4AD2F8003413F40073EFD10121C2F82C15D2F80014BE
:20720000890544BF1C46C2F82C350020FBF7F8F8204610BDB72E00200070024038B51B4C20
:207220008025C4F8845163681B061AD4184B0022D3F80413C3F80813C3F80025BFF36F8F71
:20724000BFF34F8F4FF080510020D1F83011082908BFC3F81C2C0F490F4B087001221A7092
:2072600038BDFFF753FF0A4B0022C3F80425BFF36F8FBFF34F8FC4F88450BFF34F8FBFF364
:207280006F8F4FF0FF32C3F80823CFE700E100E000700240B82E0020B92E002010B5044655
:2072A000FFF748FD63B2002B124804F00F044FF0010117DBD0F81425A14022EA0102C0F816
:2072C0001425BFF36F8FBFF34F8F0B4A0B48094912EA230238BF02460123125D9340C1F8BC
:2072E000083310BDD0F81025A14022EA0102C0F81025E6E7007002407C4801009C48010083
:2073000070B5044640B2002834DB04F00F05244A2449525D012303FA02F2C1F80423D1F885
:207320001425EA40D20700D570BDD1F81425AB401343C1F81435BFF36F8FBFF34F8F002D5D
:20734000F2D00028F0DB14F00806EDD13046FBF74FF82046FFF798FC134910350B680122D2
:2073600002FA05F523EA05030B603046BDE87040FBF746B804F00F050C4A0A49525D012358
:2073800003FA02F2C1F80423D1F81025EA40D607CAD4D1F81025AB401343C1F81035CAE78B
:2073A0009C48010000700240500C00207C480100020610B5044607D50A4BC3F81845BFF3E3
:2073C0006F8FBFF34F8F10BD0307F5D4064B00F00F02920013445B68012BEDD1FFF754FC51
:2073E000EAE700BF0070024040740240084B09491B684FF0E022A1FB03139B0C916903FB9B
:2074000000F09369CB1A23F07F438342F9D37047F400002083DE1B43034653E8000F00EA2E
:20742000010243E8002C9CF0000FF6D1704700BF30B50C7A002C75D001F1090E0468002C9D
:2074400000F0AD816FF4AB7504EB050CBCF1140F6AD8BCF1140F67D8DFE81CF01500FA0088
:2074600060018B017101820157014E01E70066006600D300BF006A0066002B0069015C007D
:207480007A0124004901002A00F0D98104791470012B4FF00404047140F27781A44601256C
:2074A0000224DCE04FF0010C002442B390F804E084E04FF0010C0024002A40F063810A8A73
:2074C0009C454FEA1222027180F07D810CF101044A8A02719C4280F0718104F1010C4A8A1E
:2074E0009C454FEA1222027180F063810CF101048A8A0271A34240F24D8104F1010C8A8AF3
:2075000063454FEA1222027162D840F26B130360012030BD4FF0010C0024002ADFD090F8B7
:2075200004E031E0A64689E700230360184630BD002A00F0CB8190F804C01546012485F87A
:2075400000C091F810E080F804E0A34240F2408104F1010C02F804E0B1F810E09C454FEA2B
:207560001E2E80F804E080F02E8102EB0C050CF1010485F800E091F812E080F804E09C4232
:2075800080F01C8104F1010C02F804E0B1F812E09C454FEA1E2E80F804E080F00A8102EBB9
:2075A0000C050CF1010485F800E091F814E080F804E09C4280F0EE8004F1010C02F804E0E6
:2075C000898A63454FEA112101719ED96244117040F26D130360012030BD002A00F078813F
:2075E00090F804C001244FF0000E02F80EC0A3424FF0090C80F804C040F2EF80151901348C
:207600009DE7002A00F0668104794FF0010E4FF0000C02F80C4073454FF02104047140F2C6
:20762000E180A4460EF10104DFE7002A00F0488104794FF0010C4FF0000E02F80E4063454C
:207640004FF00904047140F2D2800CF1010EE0E7002A00F0378190F804C00124002502F8B0
:2076600005C0A3429EF800E080F804E040F2E28004F1010C02F804E063454FF000040471BA
:2076800040F2D3800CF1010E02F80C4073454FF00004047140F2C4800EF1010C02F80E40D9
:2076A00063454FF0FF04047140F2B5800CF1010E02F80C4073454FF00104047140F2A680E9
:2076C0000EEB040C02F80E4063454FF00104047140F297800CEB040E02F80C4073454FF069
:2076E0000004047140F288800EF1010CA5E7002A3FF46EAF01796AE7002A00F0F1800479F2
:207700004FF0010E4FF0000CE6E7002A00F0E48004794FF0010C4FF0000ED3E7002A00F09B
:20772000E38090F804E04FF0010C0024A2E7002A00F0CA8090F804E01546012419E7002A07
:2077400000F0D08004794FF0010C4FF0000EA5E7002A00F0C38090F804E01546012422E7F5
:20776000002A00F0C38004794FF0010E4FF0000C9EE7002A00F0A28004794FF0010E4FF0CB
:20778000000C81E790F804E0E4E64FF4AC730360012030BD4FF4B5730360012030BD092463
:2077A0000471002B7FF46FAE40F257130360012030BD40F269130360012030BD4FF4B47303
:2077C0000360012030BD40F267130360012030BD4FF4B3730360012030BD4FF4B273036076
:2077E000012030BD40F263130360012030BD4FF4B1730360012030BD40F25F130360012062
:2078000030BD4FF4AF730360012030BD40F25D130360012030BD4FF4AE730360012030BDBD
:2078200040F25B130360012030BD4FF4AD730360012030BD40F259130360012030BD04222E
:20784000012B0271A1D902249EF800200271A342F0D9013400229C420271E6D2013400225B
:20786000A3420271DCD90134FF22A3420271D2D9013401229C420271C8D214440122A342FF
:207880000271BED914440022A3420271B4D901340922A3420271AAD901342122A342027174
:2078A000A0D9013409229C42027196D201340A8A02719C428CD204F1010C00E60124CEE7FC
:2078C0000124E5E70124BFE7012401E60124EEE70124E7E70124E0E70124CFE7012407E61A
:2078E0000124D0E70124BFE70124B3E70124C0E70B780E2B0BD8DFE803F0080808080A0CC7
:20790000080A0A0A0A08080808000020704706207047F0B54B78DA0985B00C46064611D163
